{
    "contractName": "FlagDAO",
    "abi": [
        {
            "inputs": [
                {
                    "internalType": "address",
                    "name": "_token",
                    "type": "address"
                },
                {
                    "internalType": "address[]",
                    "name": "_owners",
                    "type": "address[]"
                },
                {
                    "internalType": "uint256",
                    "name": "_numConfirmationsRequired",
                    "type": "uint256"
                }
            ],
            "stateMutability": "nonpayable",
            "type": "constructor"
        },
        {
            "anonymous": false,
            "inputs": [
                {
                    "indexed": false,
                    "internalType": "uint256",
                    "name": "id",
                    "type": "uint256"
                }
            ],
            "name": "Cancel",
            "type": "event"
        },
        {
            "anonymous": false,
            "inputs": [
                {
                    "indexed": false,
                    "internalType": "uint256",
                    "name": "id",
                    "type": "uint256"
                },
                {
                    "indexed": false,
                    "internalType": "address",
                    "name": "flager",
                    "type": "address"
                },
                {
                    "indexed": false,
                    "internalType": "uint256",
                    "name": "amt",
                    "type": "uint256"
                }
            ],
            "name": "Claim",
            "type": "event"
        },
        {
            "anonymous": false,
            "inputs": [
                {
                    "indexed": true,
                    "internalType": "uint256",
                    "name": "id",
                    "type": "uint256"
                },
                {
                    "indexed": true,
                    "internalType": "address",
                    "name": "creator",
                    "type": "address"
                }
            ],
            "name": "Launch",
            "type": "event"
        },
        {
            "anonymous": false,
            "inputs": [
                {
                    "indexed": true,
                    "internalType": "uint256",
                    "name": "id",
                    "type": "uint256"
                },
                {
                    "indexed": true,
                    "internalType": "address",
                    "name": "caller",
                    "type": "address"
                },
                {
                    "indexed": false,
                    "internalType": "uint256",
                    "name": "amount",
                    "type": "uint256"
                }
            ],
            "name": "Pledge",
            "type": "event"
        },
        {
            "anonymous": false,
            "inputs": [
                {
                    "indexed": false,
                    "internalType": "uint256",
                    "name": "id",
                    "type": "uint256"
                },
                {
                    "indexed": true,
                    "internalType": "address",
                    "name": "caller",
                    "type": "address"
                },
                {
                    "indexed": false,
                    "internalType": "uint256",
                    "name": "amount",
                    "type": "uint256"
                }
            ],
            "name": "Refund",
            "type": "event"
        },
        {
            "anonymous": false,
            "inputs": [
                {
                    "indexed": true,
                    "internalType": "uint256",
                    "name": "id",
                    "type": "uint256"
                },
                {
                    "indexed": true,
                    "internalType": "address",
                    "name": "caller",
                    "type": "address"
                },
                {
                    "indexed": false,
                    "internalType": "uint256",
                    "name": "amount",
                    "type": "uint256"
                }
            ],
            "name": "Unpledge",
            "type": "event"
        },
        {
            "inputs": [
                {
                    "internalType": "uint256",
                    "name": "_id",
                    "type": "uint256"
                }
            ],
            "name": "calBettorsrTotal",
            "outputs": [
                {
                    "internalType": "uint256",
                    "name": "",
                    "type": "uint256"
                }
            ],
            "stateMutability": "view",
            "type": "function"
        },
        {
            "inputs": [],
            "name": "count",
            "outputs": [
                {
                    "internalType": "uint256",
                    "name": "",
                    "type": "uint256"
                }
            ],
            "stateMutability": "view",
            "type": "function"
        },
        {
            "inputs": [
                {
                    "internalType": "uint256",
                    "name": "_id",
                    "type": "uint256"
                }
            ],
            "name": "flager_cancel",
            "outputs": [],
            "stateMutability": "nonpayable",
            "type": "function"
        },
        {
            "inputs": [
                {
                    "internalType": "uint256",
                    "name": "",
                    "type": "uint256"
                }
            ],
            "name": "flags",
            "outputs": [
                {
                    "internalType": "uint256",
                    "name": "id",
                    "type": "uint256"
                },
                {
                    "internalType": "address",
                    "name": "flager",
                    "type": "address"
                },
                {
                    "internalType": "string",
                    "name": "goal",
                    "type": "string"
                },
                {
                    "internalType": "uint256",
                    "name": "self_pledged",
                    "type": "uint256"
                },
                {
                    "internalType": "uint256",
                    "name": "bettors_pledged",
                    "type": "uint256"
                },
                {
                    "internalType": "bool",
                    "name": "flag_status",
                    "type": "bool"
                },
                {
                    "internalType": "bool",
                    "name": "claimed",
                    "type": "bool"
                }
            ],
            "stateMutability": "view",
            "type": "function"
        },
        {
            "inputs": [],
            "name": "getAllFlags",
            "outputs": [
                {
                    "components": [
                        {
                            "internalType": "uint256",
                            "name": "id",
                            "type": "uint256"
                        },
                        {
                            "internalType": "address",
                            "name": "flager",
                            "type": "address"
                        },
                        {
                            "internalType": "string",
                            "name": "goal",
                            "type": "string"
                        },
                        {
                            "internalType": "uint256",
                            "name": "self_pledged",
                            "type": "uint256"
                        },
                        {
                            "internalType": "uint256",
                            "name": "bettors_pledged",
                            "type": "uint256"
                        },
                        {
                            "internalType": "bool",
                            "name": "flag_status",
                            "type": "bool"
                        },
                        {
                            "internalType": "bool",
                            "name": "claimed",
                            "type": "bool"
                        }
                    ],
                    "internalType": "struct FlagDAO.Flag[]",
                    "name": "",
                    "type": "tuple[]"
                }
            ],
            "stateMutability": "view",
            "type": "function"
        },
        {
            "inputs": [
                {
                    "internalType": "uint256",
                    "name": "_id",
                    "type": "uint256"
                },
                {
                    "internalType": "address",
                    "name": "addr",
                    "type": "address"
                }
            ],
            "name": "getBettor",
            "outputs": [
                {
                    "internalType": "uint256",
                    "name": "",
                    "type": "uint256"
                }
            ],
            "stateMutability": "view",
            "type": "function"
        },
        {
            "inputs": [
                {
                    "internalType": "uint256",
                    "name": "_id",
                    "type": "uint256"
                }
            ],
            "name": "getBettors",
            "outputs": [
                {
                    "internalType": "address[]",
                    "name": "",
                    "type": "address[]"
                }
            ],
            "stateMutability": "view",
            "type": "function"
        },
        {
            "inputs": [
                {
                    "internalType": "uint256",
                    "name": "_id",
                    "type": "uint256"
                }
            ],
            "name": "getBettorsPledgement",
            "outputs": [
                {
                    "internalType": "uint256[]",
                    "name": "",
                    "type": "uint256[]"
                }
            ],
            "stateMutability": "view",
            "type": "function"
        },
        {
            "inputs": [
                {
                    "internalType": "uint256",
                    "name": "startIndex",
                    "type": "uint256"
                },
                {
                    "internalType": "uint256",
                    "name": "endIndex",
                    "type": "uint256"
                }
            ],
            "name": "getFlags",
            "outputs": [
                {
                    "components": [
                        {
                            "internalType": "uint256",
                            "name": "id",
                            "type": "uint256"
                        },
                        {
                            "internalType": "address",
                            "name": "flager",
                            "type": "address"
                        },
                        {
                            "internalType": "string",
                            "name": "goal",
                            "type": "string"
                        },
                        {
                            "internalType": "uint256",
                            "name": "self_pledged",
                            "type": "uint256"
                        },
                        {
                            "internalType": "uint256",
                            "name": "bettors_pledged",
                            "type": "uint256"
                        },
                        {
                            "internalType": "bool",
                            "name": "flag_status",
                            "type": "bool"
                        },
                        {
                            "internalType": "bool",
                            "name": "claimed",
                            "type": "bool"
                        }
                    ],
                    "internalType": "struct FlagDAO.Flag[]",
                    "name": "",
                    "type": "tuple[]"
                }
            ],
            "stateMutability": "view",
            "type": "function"
        },
        {
            "inputs": [],
            "name": "getOwners",
            "outputs": [
                {
                    "internalType": "address[]",
                    "name": "",
                    "type": "address[]"
                }
            ],
            "stateMutability": "view",
            "type": "function"
        },
        {
            "inputs": [
                {
                    "internalType": "uint256",
                    "name": "_id",
                    "type": "uint256"
                }
            ],
            "name": "getTotalBet",
            "outputs": [
                {
                    "internalType": "uint256",
                    "name": "",
                    "type": "uint256"
                }
            ],
            "stateMutability": "view",
            "type": "function"
        },
        {
            "inputs": [
                {
                    "internalType": "uint256",
                    "name": "",
                    "type": "uint256"
                },
                {
                    "internalType": "address",
                    "name": "",
                    "type": "address"
                }
            ],
            "name": "isConfirmed",
            "outputs": [
                {
                    "internalType": "bool",
                    "name": "",
                    "type": "bool"
                }
            ],
            "stateMutability": "view",
            "type": "function"
        },
        {
            "inputs": [
                {
                    "internalType": "address",
                    "name": "",
                    "type": "address"
                }
            ],
            "name": "isOwner",
            "outputs": [
                {
                    "internalType": "bool",
                    "name": "",
                    "type": "bool"
                }
            ],
            "stateMutability": "view",
            "type": "function"
        },
        {
            "inputs": [
                {
                    "internalType": "string",
                    "name": "_goal",
                    "type": "string"
                },
                {
                    "internalType": "uint256",
                    "name": "_init_pledged",
                    "type": "uint256"
                }
            ],
            "name": "launch",
            "outputs": [],
            "stateMutability": "nonpayable",
            "type": "function"
        },
        {
            "inputs": [],
            "name": "numConfirmationsRequired",
            "outputs": [
                {
                    "internalType": "uint256",
                    "name": "",
                    "type": "uint256"
                }
            ],
            "stateMutability": "view",
            "type": "function"
        },
        {
            "inputs": [
                {
                    "internalType": "uint256",
                    "name": "",
                    "type": "uint256"
                }
            ],
            "name": "owners",
            "outputs": [
                {
                    "internalType": "address",
                    "name": "",
                    "type": "address"
                }
            ],
            "stateMutability": "view",
            "type": "function"
        },
        {
            "inputs": [
                {
                    "internalType": "uint256",
                    "name": "_id",
                    "type": "uint256"
                },
                {
                    "internalType": "uint256",
                    "name": "_amt",
                    "type": "uint256"
                }
            ],
            "name": "pledge",
            "outputs": [],
            "stateMutability": "nonpayable",
            "type": "function"
        },
        {
            "inputs": [
                {
                    "internalType": "uint256",
                    "name": "_id",
                    "type": "uint256"
                }
            ],
            "name": "redeemTokensForBettors",
            "outputs": [],
            "stateMutability": "nonpayable",
            "type": "function"
        },
        {
            "inputs": [
                {
                    "internalType": "uint256",
                    "name": "_id",
                    "type": "uint256"
                }
            ],
            "name": "redeemTokensForFlager",
            "outputs": [],
            "stateMutability": "nonpayable",
            "type": "function"
        },
        {
            "inputs": [],
            "name": "token",
            "outputs": [
                {
                    "internalType": "contract IERC20",
                    "name": "",
                    "type": "address"
                }
            ],
            "stateMutability": "view",
            "type": "function"
        },
        {
            "inputs": [
                {
                    "internalType": "uint256",
                    "name": "_id",
                    "type": "uint256"
                },
                {
                    "internalType": "uint256",
                    "name": "_amt",
                    "type": "uint256"
                }
            ],
            "name": "unpledge",
            "outputs": [],
            "stateMutability": "nonpayable",
            "type": "function"
        },
        {
            "inputs": [
                {
                    "internalType": "uint256[]",
                    "name": "_succ_id_arr",
                    "type": "uint256[]"
                },
                {
                    "internalType": "bool",
                    "name": "res",
                    "type": "bool"
                }
            ],
            "name": "updateFlagStatus",
            "outputs": [],
            "stateMutability": "nonpayable",
            "type": "function"
        }
    ],
    "bytecode": "60a060405260006008553480156200001657600080fd5b5060405162003703380380620037038339810160408190526200003991620002a4565b6001600160a01b03831660805281516200009a5760405162461bcd60e51b815260206004820152601560248201527f6d756c7469206f776e657273207265717569726564000000000000000000000060448201526064015b60405180910390fd5b600081118015620000ac575081518111155b6200010b5760405162461bcd60e51b815260206004820152602860248201527f696e76616c6964206e756d626572206f6620726571756972656420636f6e6669604482015267726d6174696f6e7360c01b606482015260840162000091565b60005b8251811015620002645760008382815181106200012f576200012f62000396565b6020026020010151905060006001600160a01b0316816001600160a01b0316036200018d5760405162461bcd60e51b815260206004820152600d60248201526c34b73b30b634b21037bbb732b960991b604482015260640162000091565b6001600160a01b03811660009081526005602052604090205460ff1615620001eb5760405162461bcd60e51b815260206004820152601060248201526f6f776e6572206e6f7420756e6971756560801b604482015260640162000091565b6001600160a01b03166000818152600560205260408120805460ff191660019081179091556004805491820181559091527f8a35acfbc15ff81a39ae7d344fd709f28e8600b4aa8c65c6b64bfe7fe36bd19b0180546001600160a01b0319169091179055806200025b81620003ac565b9150506200010e565b5060065550620003d49050565b80516001600160a01b03811681146200028957600080fd5b919050565b634e487b7160e01b600052604160045260246000fd5b600080600060608486031215620002ba57600080fd5b620002c58462000271565b602085810151919450906001600160401b0380821115620002e557600080fd5b818701915087601f830112620002fa57600080fd5b8151818111156200030f576200030f6200028e565b8060051b604051601f19603f830116810181811085821117156200033757620003376200028e565b60405291825284820192508381018501918a8311156200035657600080fd5b938501935b828510156200037f576200036f8562000271565b845293850193928501926200035b565b809750505050505050604084015190509250925092565b634e487b7160e01b600052603260045260246000fd5b600060018201620003cd57634e487b7160e01b600052601160045260246000fd5b5060010190565b6080516132cd620004366000396000818161034001528181610cbd01528181610ebe01528181611428015281816114de01528181611a0101528181611e04015281816124790152818161250f01528181612a330152612b6701526132cd6000f3fe608060405234801561001057600080fd5b50600436106101425760003560e01c80638b4255cd116100b8578063e9b150511161007c578063e9b15051146102ef578063ef4d16d614610302578063f337ff7e14610315578063f4cb5bde14610328578063fc0c546a1461033b578063fde327be1461036257600080fd5b80638b4255cd146102a55780639064979b146102b8578063a0e67e2b146102cb578063b2975dfc146102d3578063d0549b85146102e657600080fd5b806360b301c61161010a57806360b301c614610201578063711853ab1461022157806380f59a651461023657806381274d3a14610264578063863aacef1461028a57806389a5333f1461029d57600080fd5b8063025e7c271461014757806306661abd1461017757806323aa33411461018e5780632f54bf6e146101ae5780635d74b688146101e1575b600080fd5b61015a610155366004612c6a565b610375565b6040516001600160a01b0390911681526020015b60405180910390f35b61018060085481565b60405190815260200161016e565b6101a161019c366004612c6a565b61039f565b60405161016e9190612c83565b6101d16101bc366004612ce5565b60056020526000908152604090205460ff1681565b604051901515815260200161016e565b6101f46101ef366004612c6a565b6105ce565b60405161016e9190612d02565b61021461020f366004612d3a565b610882565b60405161016e9190612da2565b61023461022f366004612d3a565b610b30565b005b6101d1610244366004612e5a565b600760209081526000928352604080842090915290825290205460ff1681565b610277610272366004612c6a565b610f76565b60405161016e9796959493929190612e8a565b610234610298366004612c6a565b61105f565b6102146115b8565b6102346102b3366004612f10565b611742565b6102346102c6366004612fe0565b61196b565b6101a1611bfd565b6102346102e1366004612c6a565b611c5f565b61018060065481565b6101806102fd366004612e5a565b611f11565b610234610310366004612c6a565b611faa565b610180610323366004612c6a565b6125f7565b610180610336366004612c6a565b6127d3565b61015a7f000000000000000000000000000000000000000000000000000000000000000081565b610234610370366004612d3a565b6129a6565b6004818154811061038557600080fd5b6000918252602090912001546001600160a01b0316905081565b6000818152600960205260408082209051636f59ec4b60e11b81526060929173__$c10e0fbea676fb2092fb4aaafd6cad14ff$__9163deb3d896916103ea9160040190815260200190565b602060405180830381865af4158015610407573d6000803e3d6000fd5b505050506040513d601f19601f8201168201806040525081019061042b9190613058565b67ffffffffffffffff81111561044357610443612edc565b60405190808252806020026020018201604052801561046c578160200160208202803683370190505b50905060005b600084815260096020526040908190209051636f59ec4b60e11b8152600481019190915273__$c10e0fbea676fb2092fb4aaafd6cad14ff$__9063deb3d89690602401602060405180830381865af41580156104d2573d6000803e3d6000fd5b505050506040513d601f19601f820116820180604052508101906104f69190613058565b8110156105c75760008481526009602052604080822090516368d54f3f60e11b815260048101919091526024810183905273__$c10e0fbea676fb2092fb4aaafd6cad14ff$__9063d1aa9e7e90604401602060405180830381865af4158015610563573d6000803e3d6000fd5b505050506040513d601f19601f820116820180604052508101906105879190613071565b90508083838151811061059c5761059c61308e565b6001600160a01b039092166020928302919091019091015250806105bf816130ba565b915050610472565b5092915050565b6000818152600960205260408082209051636f59ec4b60e11b81526060929173__$c10e0fbea676fb2092fb4aaafd6cad14ff$__9163deb3d896916106199160040190815260200190565b602060405180830381865af4158015610636573d6000803e3d6000fd5b505050506040513d601f19601f8201168201806040525081019061065a9190613058565b67ffffffffffffffff81111561067257610672612edc565b60405190808252806020026020018201604052801561069b578160200160208202803683370190505b50905060005b600084815260096020526040908190209051636f59ec4b60e11b8152600481019190915273__$c10e0fbea676fb2092fb4aaafd6cad14ff$__9063deb3d89690602401602060405180830381865af4158015610701573d6000803e3d6000fd5b505050506040513d601f19601f820116820180604052508101906107259190613058565b8110156105c75760008481526009602052604080822090516368d54f3f60e11b815260048101919091526024810183905273__$c10e0fbea676fb2092fb4aaafd6cad14ff$__9063d1aa9e7e90604401602060405180830381865af4158015610792573d6000803e3d6000fd5b505050506040513d601f19601f820116820180604052508101906107b69190613071565b600086815260096020526040808220905163732a2ccf60e01b815260048101919091526001600160a01b03831660248201529192509073__$c10e0fbea676fb2092fb4aaafd6cad14ff$__9063732a2ccf90604401602060405180830381865af4158015610828573d6000803e3d6000fd5b505050506040513d601f19601f8201168201806040525081019061084c9190613058565b9050808484815181106108615761086161308e565b6020026020010181815250505050808061087a906130ba565b9150506106a1565b60608183106108d15760405162461bcd60e51b815260206004820152601660248201527539ba30b93a24b73232bc101f1032b73224b73232bc1760511b60448201526064015b60405180910390fd5b600a548211156109135760405162461bcd60e51b815260206004820152600d60248201526c273790333630b3b9903737bb9760991b60448201526064016108c8565b600061091f84846130d3565b67ffffffffffffffff81111561093757610937612edc565b6040519080825280602002602001820160405280156109b557816020015b6109a26040518060e001604052806000815260200160006001600160a01b031681526020016060815260200160008152602001600081526020016000151581526020016000151581525090565b8152602001906001900390816109555790505b509050835b83811015610b2657600a81815481106109d5576109d561308e565b90600052602060002090600602016040518060e0016040529081600082015481526020016001820160009054906101000a90046001600160a01b03166001600160a01b03166001600160a01b03168152602001600282018054610a37906130e6565b80601f0160208091040260200160405190810160405280929190818152602001828054610a63906130e6565b8015610ab05780601f10610a8557610100808354040283529160200191610ab0565b820191906000526020600020905b815481529060010190602001808311610a9357829003601f168201915b5050509183525050600382015460208201526004820154604082015260059091015460ff8082161515606084015261010090910416151560809091015282610af887846130d3565b81518110610b0857610b0861308e565b60200260200101819052508080610b1e906130ba565b9150506109ba565b5090505b92915050565b6000610b44670de0b6b3a764000083613120565b90506000600a8481548110610b5b57610b5b61308e565b90600052602060002090600602016040518060e0016040529081600082015481526020016001820160009054906101000a90046001600160a01b03166001600160a01b03166001600160a01b03168152602001600282018054610bbd906130e6565b80601f0160208091040260200160405190810160405280929190818152602001828054610be9906130e6565b8015610c365780601f10610c0b57610100808354040283529160200191610c36565b820191906000526020600020905b815481529060010190602001808311610c1957829003601f168201915b505050918352505060038201546020808301919091526004830154604083015260059092015460ff808216151560608401526101009091041615156080909101528101519091506001600160a01b03163303610d38578181606001818151610c9e91906130d3565b90525060405163a9059cbb60e01b8152336004820152602481018390527f00000000000000000000000000000000000000000000000000000000000000006001600160a01b03169063a9059cbb906044016020604051808303816000875af1158015610d0e573d6000803e3d6000fd5b505050506040513d601f19601f82011682018060405250810190610d329190613137565b50610f38565b600084815260096020526040808220905163732a2ccf60e01b8152600481019190915233602482015273__$c10e0fbea676fb2092fb4aaafd6cad14ff$__9063732a2ccf90604401602060405180830381865af4158015610d9d573d6000803e3d6000fd5b505050506040513d601f19601f82011682018060405250810190610dc19190613058565b905080831115610e035760405162461bcd60e51b815260206004820152600d60248201526c4572726f7220616d6f756e742160981b60448201526064016108c8565b610e0d83826130d3565b90508282608001818151610e2191906130d3565b905250600085815260096020526040908190209051632f0ad01760e21b815260048101919091523360248201526044810182905273__$c10e0fbea676fb2092fb4aaafd6cad14ff$__9063bc2b405c9060640160006040518083038186803b158015610e8c57600080fd5b505af4158015610ea0573d6000803e3d6000fd5b505060405163a9059cbb60e01b8152336004820152602481018690527f00000000000000000000000000000000000000000000000000000000000000006001600160a01b0316925063a9059cbb91506044016020604051808303816000875af1158015610f11573d6000803e3d6000fd5b505050506040513d601f19601f82011682018060405250810190610f359190613137565b50505b604051828152339085907f2eeeab891b26a214d1b25749f88a406bdea852bd8c9bfda977e0ef8114c180ba906020015b60405180910390a350505050565b600a8181548110610f8657600080fd5b60009182526020909120600690910201805460018201546002830180549294506001600160a01b039091169291610fbc906130e6565b80601f0160208091040260200160405190810160405280929190818152602001828054610fe8906130e6565b80156110355780601f1061100a57610100808354040283529160200191611035565b820191906000526020600020905b81548152906001019060200180831161101857829003601f168201915b50505050600383015460048401546005909401549293909290915060ff8082169161010090041687565b6000600a82815481106110745761107461308e565b90600052602060002090600602016040518060e0016040529081600082015481526020016001820160009054906101000a90046001600160a01b03166001600160a01b03166001600160a01b031681526020016002820180546110d6906130e6565b80601f0160208091040260200160405190810160405280929190818152602001828054611102906130e6565b801561114f5780601f106111245761010080835404028352916020019161114f565b820191906000526020600020905b81548152906001019060200180831161113257829003601f168201915b5050509183525050600382015460208201526004820154604082015260059091015460ff8082161515606084015261010090910416151560809091015260a08101519091506111f25760405162461bcd60e51b815260206004820152602960248201527f466c6167206d757374206265206661696c656420746f206469737472696275746044820152686520706c656467657360b81b60648201526084016108c8565b8060c00151156112375760405162461bcd60e51b815260206004820152601060248201526f416c726561647920636c61696d65642160801b60448201526064016108c8565b6000805b600084815260096020526040908190209051636f59ec4b60e11b8152600481019190915273__$c10e0fbea676fb2092fb4aaafd6cad14ff$__9063deb3d89690602401602060405180830381865af415801561129b573d6000803e3d6000fd5b505050506040513d601f19601f820116820180604052508101906112bf9190613058565b8110156114065760008481526009602052604080822090516368d54f3f60e11b815260048101919091526024810183905273__$c10e0fbea676fb2092fb4aaafd6cad14ff$__9063d1aa9e7e90604401602060405180830381865af415801561132c573d6000803e3d6000fd5b505050506040513d601f19601f820116820180604052508101906113509190613071565b60008681526009602052604090819020905163732a2ccf60e01b815260048101919091526001600160a01b038216602482015290915073__$c10e0fbea676fb2092fb4aaafd6cad14ff$__9063732a2ccf90604401602060405180830381865af41580156113c2573d6000803e3d6000fd5b505050506040513d601f19601f820116820180604052508101906113e69190613058565b6113f09084613154565b92505080806113fe906130ba565b91505061123b565b506020820151606083015160405163a9059cbb60e01b81526001600160a01b037f0000000000000000000000000000000000000000000000000000000000000000169263a9059cbb9261146f926004016001600160a01b03929092168252602082015260400190565b6020604051808303816000875af115801561148e573d6000803e3d6000fd5b505050506040513d601f19601f820116820180604052508101906114b29190613137565b50602082015160405163a9059cbb60e01b81526001600160a01b039182166004820152602481018390527f00000000000000000000000000000000000000000000000000000000000000009091169063a9059cbb906044016020604051808303816000875af1158015611529573d6000803e3d6000fd5b505050506040513d601f19601f8201168201806040525081019061154d9190613137565b50600160c0830152602082015160608301517f3ed1528b0fdc7c5207c1bf935e34a667e13656b9ed165260c522be0bc544f30391859161158d9085613154565b604080519384526001600160a01b0390921660208401529082015260600160405180910390a1505050565b600a546060906115fa5760405162461bcd60e51b815260206004820152600d60248201526c273790333630b3b9903737bb9760991b60448201526064016108c8565b600a805480602002602001604051908101604052809291908181526020016000905b828210156117395760008481526020908190206040805160e081018252600686029092018054835260018101546001600160a01b0316938301939093526002830180549293929184019161166f906130e6565b80601f016020809104026020016040519081016040528092919081815260200182805461169b906130e6565b80156116e85780601f106116bd576101008083540402835291602001916116e8565b820191906000526020600020905b8154815290600101906020018083116116cb57829003601f168201915b505050918352505060038201546020808301919091526004830154604083015260059092015460ff80821615156060840152610100909104161515608090910152908252600192909201910161161c565b50505050905090565b3360009081526005602052604090205460ff1661178d5760405162461bcd60e51b81526020600482015260096024820152683737ba1037bbb732b960b91b60448201526064016108c8565b60005b82518111611804576000600a8483815181106117ae576117ae61308e565b6020026020010151815481106117c6576117c661308e565b6000918252602090912060069091020160058101805460ff191685151517905590506117f18261105f565b50806117fc816130ba565b915050611790565b5060015b6008548111611966576000600a82815481106118265761182661308e565b90600052602060002090600602016040518060e0016040529081600082015481526020016001820160009054906101000a90046001600160a01b03166001600160a01b03166001600160a01b03168152602001600282018054611888906130e6565b80601f01602080910402602001604051908101604052809291908181526020018280546118b4906130e6565b80156119015780601f106118d657610100808354040283529160200191611901565b820191906000526020600020905b8154815290600101906020018083116118e457829003601f168201915b5050509183525050600382015460208201526004820154604082015260059091015460ff8082161515606084015261010090910416151560809091015260a08101519091506119535761195382611faa565b508061195e816130ba565b915050611808565b505050565b60006040518060e001604052806008548152602001336001600160a01b0316815260200185858080601f0160208091040260200160405190810160405280939291908181526020018383808284376000920191909152505050908252506020016119dd670de0b6b3a764000085613120565b81526000602082018190526040820181905260609091015290506001600160a01b037f0000000000000000000000000000000000000000000000000000000000000000166323b872dd3330611a3a670de0b6b3a764000087613120565b6040516001600160e01b031960e086901b1681526001600160a01b03938416600482015292909116602483015260448201526064016020604051808303816000875af1158015611a8e573d6000803e3d6000fd5b505050506040513d601f19601f82011682018060405250810190611ab29190613137565b50600a805460018101825560009190915281517fc65a7bb8d6351c1cf70c95a316cc6a92839c986682d98bc35f958f4883f9d2a8600690920291820190815560208301517fc65a7bb8d6351c1cf70c95a316cc6a92839c986682d98bc35f958f4883f9d2a9830180546001600160a01b0319166001600160a01b03909216919091179055604083015183927fc65a7bb8d6351c1cf70c95a316cc6a92839c986682d98bc35f958f4883f9d2aa0190611b6a90826131b5565b50606082015160038201556080820151600482015560a08201516005909101805460c09093015115156101000261ff00199215159290921661ffff19909316929092171790556008546040513391907fd706ece3f5897232e72442409d7680f75ceb5f3dfec9f9d7f7dd72639c25828b90600090a3600160086000828254611bf29190613154565b909155505050505050565b60606004805480602002602001604051908101604052809291908181526020018280548015611c5557602002820191906000526020600020905b81546001600160a01b03168152600190910190602001808311611c37575b5050505050905090565b6000600a8281548110611c7457611c7461308e565b90600052602060002090600602016040518060e0016040529081600082015481526020016001820160009054906101000a90046001600160a01b03166001600160a01b03166001600160a01b03168152602001600282018054611cd6906130e6565b80601f0160208091040260200160405190810160405280929190818152602001828054611d02906130e6565b8015611d4f5780601f10611d2457610100808354040283529160200191611d4f565b820191906000526020600020905b815481529060010190602001808311611d3257829003601f168201915b505050918352505060038201546020808301919091526004830154604083015260059092015460ff808216151560608401526101009091041615156080909101528101519091506001600160a01b03163314611de25760405162461bcd60e51b81526020600482015260126024820152714e6f7420666c6167657220697473656c662160701b60448201526064016108c8565b606081015160405163a9059cbb60e01b815233600482015260248101919091527f00000000000000000000000000000000000000000000000000000000000000006001600160a01b03169063a9059cbb906044016020604051808303816000875af1158015611e55573d6000803e3d6000fd5b505050506040513d601f19601f82011682018060405250810190611e799190613137565b50600a8281548110611e8d57611e8d61308e565b6000918252602082206006909102018181556001810180546001600160a01b031916905590611ebf6002830182612c14565b506000600382018190556004820155600501805461ffff191690556040518281527f8bf30e7ff26833413be5f69e1d373744864d600b664204b4a2f9844a8eedb9ed9060200160405180910390a15050565b600082815260096020526040808220905163732a2ccf60e01b815260048101919091526001600160a01b038316602482015273__$c10e0fbea676fb2092fb4aaafd6cad14ff$__9063732a2ccf90604401602060405180830381865af4158015611f7f573d6000803e3d6000fd5b505050506040513d601f19601f82011682018060405250810190611fa39190613058565b9392505050565b6000600a8281548110611fbf57611fbf61308e565b90600052602060002090600602016040518060e0016040529081600082015481526020016001820160009054906101000a90046001600160a01b03166001600160a01b03166001600160a01b03168152602001600282018054612021906130e6565b80601f016020809104026020016040519081016040528092919081815260200182805461204d906130e6565b801561209a5780601f1061206f5761010080835404028352916020019161209a565b820191906000526020600020905b81548152906001019060200180831161207d57829003601f168201915b5050509183525050600382015460208201526004820154604082015260059091015460ff8082161515606084015261010090910416151560809091015260c08101519091501561211f5760405162461bcd60e51b815260206004820152601060248201526f416c726561647920636c61696d65642160801b60448201526064016108c8565b8060a00151156121855760405162461bcd60e51b815260206004820152602b60248201527f466c6167206d75737420626520276661696c65642720746f206469737472696260448201526a75746520706c656467657360a81b60648201526084016108c8565b6000828152600960205260408082209051636f59ec4b60e11b8152600481019190915273__$c10e0fbea676fb2092fb4aaafd6cad14ff$__9063deb3d89690602401602060405180830381865af41580156121e4573d6000803e3d6000fd5b505050506040513d601f19601f820116820180604052508101906122089190613058565b116122555760405162461bcd60e51b815260206004820152601860248201527f4e6f20626574746f727320666f722074686520666c616721000000000000000060448201526064016108c8565b600080612261846125f7565b905060005b600085815260096020526040908190209051636f59ec4b60e11b8152600481019190915273__$c10e0fbea676fb2092fb4aaafd6cad14ff$__9063deb3d89690602401602060405180830381865af41580156122c6573d6000803e3d6000fd5b505050506040513d601f19601f820116820180604052508101906122ea9190613058565b8110156125e65760008581526009602052604080822090516368d54f3f60e11b815260048101919091526024810183905273__$c10e0fbea676fb2092fb4aaafd6cad14ff$__9063d1aa9e7e90604401602060405180830381865af4158015612357573d6000803e3d6000fd5b505050506040513d601f19601f8201168201806040525081019061237b9190613071565b60008781526009602052604090819020905163732a2ccf60e01b815260048101919091526001600160a01b038216602482015290915073__$c10e0fbea676fb2092fb4aaafd6cad14ff$__9063732a2ccf90604401602060405180830381865af41580156123ed573d6000803e3d6000fd5b505050506040513d601f19601f820116820180604052508101906124119190613058565b93506000612420601486613120565b90506000866060015185876124359190613275565b61243f9190613120565b905081811161244e5780612450565b815b60405163a9059cbb60e01b81526001600160a01b038581166004830152602482018990529193507f00000000000000000000000000000000000000000000000000000000000000009091169063a9059cbb906044016020604051808303816000875af11580156124c4573d6000803e3d6000fd5b505050506040513d601f19601f820116820180604052508101906124e89190613137565b5060405163a9059cbb60e01b81526001600160a01b038481166004830152602482018390527f0000000000000000000000000000000000000000000000000000000000000000169063a9059cbb906044016020604051808303816000875af1158015612558573d6000803e3d6000fd5b505050506040513d601f19601f8201168201806040525081019061257c9190613137565b507f3ed1528b0fdc7c5207c1bf935e34a667e13656b9ed165260c522be0bc544f30388336125aa8985613154565b604080519384526001600160a01b0390921660208401529082015260600160405180910390a150505080806125de906130ba565b915050612266565b5050600160c0909201919091525050565b60008080805b600085815260096020526040908190209051636f59ec4b60e11b8152600481019190915273__$c10e0fbea676fb2092fb4aaafd6cad14ff$__9063deb3d89690602401602060405180830381865af415801561265d573d6000803e3d6000fd5b505050506040513d601f19601f820116820180604052508101906126819190613058565b8110156127ca5760008581526009602052604080822090516368d54f3f60e11b815260048101919091526024810183905273__$c10e0fbea676fb2092fb4aaafd6cad14ff$__9063d1aa9e7e90604401602060405180830381865af41580156126ee573d6000803e3d6000fd5b505050506040513d601f19601f820116820180604052508101906127129190613071565b60008781526009602052604090819020905163732a2ccf60e01b815260048101919091526001600160a01b038216602482015290915073__$c10e0fbea676fb2092fb4aaafd6cad14ff$__9063732a2ccf90604401602060405180830381865af4158015612784573d6000803e3d6000fd5b505050506040513d601f19601f820116820180604052508101906127a89190613058565b92506127b48385613154565b93505080806127c2906130ba565b9150506125fd565b50909392505050565b60008080805b600085815260096020526040908190209051636f59ec4b60e11b8152600481019190915273__$c10e0fbea676fb2092fb4aaafd6cad14ff$__9063deb3d89690602401602060405180830381865af4158015612839573d6000803e3d6000fd5b505050506040513d601f19601f8201168201806040525081019061285d9190613058565b8110156127ca5760008581526009602052604080822090516368d54f3f60e11b815260048101919091526024810183905273__$c10e0fbea676fb2092fb4aaafd6cad14ff$__9063d1aa9e7e90604401602060405180830381865af41580156128ca573d6000803e3d6000fd5b505050506040513d601f19601f820116820180604052508101906128ee9190613071565b60008781526009602052604090819020905163732a2ccf60e01b815260048101919091526001600160a01b038216602482015290915073__$c10e0fbea676fb2092fb4aaafd6cad14ff$__9063732a2ccf90604401602060405180830381865af4158015612960573d6000803e3d6000fd5b505050506040513d601f19601f820116820180604052508101906129849190613058565b92506129908385613154565b935050808061299e906130ba565b9150506127d9565b60006129ba670de0b6b3a764000083613120565b90506000600a84815481106129d1576129d161308e565b6000918252602090912060069091020160018101549091506001600160a01b03163303612aae5781816003016000828254612a0c9190613154565b90915550506040516323b872dd60e01b8152336004820152306024820152604481018390527f00000000000000000000000000000000000000000000000000000000000000006001600160a01b0316906323b872dd906064016020604051808303816000875af1158015612a84573d6000803e3d6000fd5b505050506040513d601f19601f82011682018060405250810190612aa89190613137565b50612be0565b81816004016000828254612ac29190613154565b9091555050600084815260096020526040908190209051632f0ad01760e21b815260048101919091523360248201526044810183905273__$c10e0fbea676fb2092fb4aaafd6cad14ff$__9063bc2b405c9060640160006040518083038186803b158015612b2f57600080fd5b505af4158015612b43573d6000803e3d6000fd5b50506040516323b872dd60e01b8152336004820152306024820152604481018590527f00000000000000000000000000000000000000000000000000000000000000006001600160a01b031692506323b872dd91506064016020604051808303816000875af1158015612bba573d6000803e3d6000fd5b505050506040513d601f19601f82011682018060405250810190612bde9190613137565b505b604051828152339085907f06bdb975df800a73232998e71ed585d536222f1dfeaa622d7f62a23ada686c8290602001610f68565b508054612c20906130e6565b6000825580601f10612c30575050565b601f016020900490600052602060002090810190612c4e9190612c51565b50565b5b80821115612c665760008155600101612c52565b5090565b600060208284031215612c7c57600080fd5b5035919050565b6020808252825182820181905260009190848201906040850190845b81811015612cc45783516001600160a01b031683529284019291840191600101612c9f565b50909695505050505050565b6001600160a01b0381168114612c4e57600080fd5b600060208284031215612cf757600080fd5b8135611fa381612cd0565b6020808252825182820181905260009190848201906040850190845b81811015612cc457835183529284019291840191600101612d1e565b60008060408385031215612d4d57600080fd5b50508035926020909101359150565b6000815180845260005b81811015612d8257602081850181015186830182015201612d66565b506000602082860101526020601f19601f83011685010191505092915050565b60006020808301818452808551808352604092508286019150828160051b87010184880160005b83811015612e4c57888303603f19018552815180518452878101516001600160a01b0316888501528681015160e088860181905290612e0a82870182612d5c565b606084810151908801526080808501519088015260a08085015115159088015260c0938401511515939096019290925250509386019390860190600101612dc9565b509098975050505050505050565b60008060408385031215612e6d57600080fd5b823591506020830135612e7f81612cd0565b809150509250929050565b8781526001600160a01b038716602082015260e060408201819052600090612eb490830188612d5c565b606083019690965250608081019390935290151560a0830152151560c0909101529392505050565b634e487b7160e01b600052604160045260246000fd5b8015158114612c4e57600080fd5b8035612f0b81612ef2565b919050565b60008060408385031215612f2357600080fd5b823567ffffffffffffffff80821115612f3b57600080fd5b818501915085601f830112612f4f57600080fd5b8135602082821115612f6357612f63612edc565b8160051b604051601f19603f83011681018181108682111715612f8857612f88612edc565b604052928352818301935084810182019289841115612fa657600080fd5b948201945b83861015612fc457853585529482019493820193612fab565b9650612fd39050878201612f00565b9450505050509250929050565b600080600060408486031215612ff557600080fd5b833567ffffffffffffffff8082111561300d57600080fd5b818601915086601f83011261302157600080fd5b81358181111561303057600080fd5b87602082850101111561304257600080fd5b6020928301989097509590910135949350505050565b60006020828403121561306a57600080fd5b5051919050565b60006020828403121561308357600080fd5b8151611fa381612cd0565b634e487b7160e01b600052603260045260246000fd5b634e487b7160e01b600052601160045260246000fd5b6000600182016130cc576130cc6130a4565b5060010190565b81810381811115610b2a57610b2a6130a4565b600181811c908216806130fa57607f821691505b60208210810361311a57634e487b7160e01b600052602260045260246000fd5b50919050565b8082028115828204841417610b2a57610b2a6130a4565b60006020828403121561314957600080fd5b8151611fa381612ef2565b80820180821115610b2a57610b2a6130a4565b601f82111561196657600081815260208120601f850160051c8101602086101561318e5750805b601f850160051c820191505b818110156131ad5782815560010161319a565b505050505050565b815167ffffffffffffffff8111156131cf576131cf612edc565b6131e3816131dd84546130e6565b84613167565b602080601f83116001811461321857600084156132005750858301515b600019600386901b1c1916600185901b1785556131ad565b600085815260208120601f198616915b8281101561324757888601518255948401946001909101908401613228565b50858210156132655787850151600019600388901b60f8161c191681555b5050505050600190811b01905550565b60008261329257634e487b7160e01b600052601260045260246000fd5b50049056fea2646970667358221220e0cf7aaf4254b412b2d25ac8c93cc174911f06f35f2f6c942c4777bc8963af0964736f6c63430008130033",
    "sourcePath": "/Users/soda/Flagdao/contracts/FlagDAO.sol",
    "compiler": {
        "name": "solc",
        "version": "0.8.19+commit.7dd6d404"
    },
    "functionHashes": {
        "calBettorsrTotal(uint256)": "f337ff7e",
        "count()": "06661abd",
        "flager_cancel(uint256)": "b2975dfc",
        "flags(uint256)": "81274d3a",
        "getAllFlags()": "89a5333f",
        "getBettor(uint256,address)": "e9b15051",
        "getBettors(uint256)": "23aa3341",
        "getBettorsPledgement(uint256)": "5d74b688",
        "getFlags(uint256,uint256)": "60b301c6",
        "getOwners()": "a0e67e2b",
        "getTotalBet(uint256)": "f4cb5bde",
        "isConfirmed(uint256,address)": "80f59a65",
        "isOwner(address)": "2f54bf6e",
        "launch(string,uint256)": "9064979b",
        "numConfirmationsRequired()": "d0549b85",
        "owners(uint256)": "025e7c27",
        "pledge(uint256,uint256)": "fde327be",
        "redeemTokensForBettors(uint256)": "ef4d16d6",
        "redeemTokensForFlager(uint256)": "863aacef",
        "token()": "fc0c546a",
        "unpledge(uint256,uint256)": "711853ab",
        "updateFlagStatus(uint256[],bool)": "8b4255cd"
    },
    "gasEstimates": {
        "creation": {
            "codeDepositCost": "2601000",
            "executionCost": "infinite",
            "totalCost": "infinite"
        },
        "external": {
            "calBettorsrTotal(uint256)": "infinite",
            "count()": "2341",
            "flager_cancel(uint256)": "infinite",
            "flags(uint256)": "infinite",
            "getAllFlags()": "infinite",
            "getBettor(uint256,address)": "infinite",
            "getBettors(uint256)": "infinite",
            "getBettorsPledgement(uint256)": "infinite",
            "getFlags(uint256,uint256)": "infinite",
            "getOwners()": "infinite",
            "getTotalBet(uint256)": "infinite",
            "isConfirmed(uint256,address)": "2695",
            "isOwner(address)": "2615",
            "launch(string,uint256)": "infinite",
            "numConfirmationsRequired()": "2406",
            "owners(uint256)": "4627",
            "pledge(uint256,uint256)": "infinite",
            "redeemTokensForBettors(uint256)": "infinite",
            "redeemTokensForFlager(uint256)": "infinite",
            "token()": "infinite",
            "unpledge(uint256,uint256)": "infinite",
            "updateFlagStatus(uint256[],bool)": "infinite"
        }
    }
}