{
    "contractName": "ERC20",
    "abi": [
        {
            "inputs": [
                {
                    "internalType": "string",
                    "name": "name_",
                    "type": "string"
                },
                {
                    "internalType": "string",
                    "name": "symbol_",
                    "type": "string"
                },
                {
                    "internalType": "address[]",
                    "name": "white_addrs",
                    "type": "address[]"
                }
            ],
            "stateMutability": "nonpayable",
            "type": "constructor"
        },
        {
            "anonymous": false,
            "inputs": [
                {
                    "indexed": true,
                    "internalType": "address",
                    "name": "owner",
                    "type": "address"
                },
                {
                    "indexed": true,
                    "internalType": "address",
                    "name": "spender",
                    "type": "address"
                },
                {
                    "indexed": false,
                    "internalType": "uint256",
                    "name": "value",
                    "type": "uint256"
                }
            ],
            "name": "Approval",
            "type": "event"
        },
        {
            "anonymous": false,
            "inputs": [
                {
                    "indexed": true,
                    "internalType": "address",
                    "name": "from",
                    "type": "address"
                },
                {
                    "indexed": true,
                    "internalType": "address",
                    "name": "to",
                    "type": "address"
                },
                {
                    "indexed": false,
                    "internalType": "uint256",
                    "name": "value",
                    "type": "uint256"
                }
            ],
            "name": "Transfer",
            "type": "event"
        },
        {
            "inputs": [
                {
                    "internalType": "address",
                    "name": "",
                    "type": "address"
                },
                {
                    "internalType": "address",
                    "name": "",
                    "type": "address"
                }
            ],
            "name": "allowance",
            "outputs": [
                {
                    "internalType": "uint256",
                    "name": "",
                    "type": "uint256"
                }
            ],
            "stateMutability": "view",
            "type": "function"
        },
        {
            "inputs": [
                {
                    "internalType": "address",
                    "name": "spender",
                    "type": "address"
                },
                {
                    "internalType": "uint256",
                    "name": "amount",
                    "type": "uint256"
                }
            ],
            "name": "approve",
            "outputs": [
                {
                    "internalType": "bool",
                    "name": "",
                    "type": "bool"
                }
            ],
            "stateMutability": "nonpayable",
            "type": "function"
        },
        {
            "inputs": [
                {
                    "internalType": "address[]",
                    "name": "appr_addrs",
                    "type": "address[]"
                },
                {
                    "internalType": "address",
                    "name": "spender",
                    "type": "address"
                },
                {
                    "internalType": "uint256",
                    "name": "amount",
                    "type": "uint256"
                }
            ],
            "name": "approveBatch",
            "outputs": [
                {
                    "internalType": "bool",
                    "name": "",
                    "type": "bool"
                }
            ],
            "stateMutability": "nonpayable",
            "type": "function"
        },
        {
            "inputs": [
                {
                    "internalType": "address",
                    "name": "",
                    "type": "address"
                }
            ],
            "name": "balanceOf",
            "outputs": [
                {
                    "internalType": "uint256",
                    "name": "",
                    "type": "uint256"
                }
            ],
            "stateMutability": "view",
            "type": "function"
        },
        {
            "inputs": [
                {
                    "internalType": "uint256",
                    "name": "amount",
                    "type": "uint256"
                }
            ],
            "name": "burn",
            "outputs": [],
            "stateMutability": "nonpayable",
            "type": "function"
        },
        {
            "inputs": [],
            "name": "decimals",
            "outputs": [
                {
                    "internalType": "uint8",
                    "name": "",
                    "type": "uint8"
                }
            ],
            "stateMutability": "view",
            "type": "function"
        },
        {
            "inputs": [
                {
                    "internalType": "uint256",
                    "name": "amount",
                    "type": "uint256"
                }
            ],
            "name": "mint",
            "outputs": [],
            "stateMutability": "nonpayable",
            "type": "function"
        },
        {
            "inputs": [],
            "name": "name",
            "outputs": [
                {
                    "internalType": "string",
                    "name": "",
                    "type": "string"
                }
            ],
            "stateMutability": "view",
            "type": "function"
        },
        {
            "inputs": [],
            "name": "symbol",
            "outputs": [
                {
                    "internalType": "string",
                    "name": "",
                    "type": "string"
                }
            ],
            "stateMutability": "view",
            "type": "function"
        },
        {
            "inputs": [],
            "name": "totalSupply",
            "outputs": [
                {
                    "internalType": "uint256",
                    "name": "",
                    "type": "uint256"
                }
            ],
            "stateMutability": "view",
            "type": "function"
        },
        {
            "inputs": [
                {
                    "internalType": "address",
                    "name": "recipient",
                    "type": "address"
                },
                {
                    "internalType": "uint256",
                    "name": "amount",
                    "type": "uint256"
                }
            ],
            "name": "transfer",
            "outputs": [
                {
                    "internalType": "bool",
                    "name": "",
                    "type": "bool"
                }
            ],
            "stateMutability": "nonpayable",
            "type": "function"
        },
        {
            "inputs": [
                {
                    "internalType": "address",
                    "name": "sender",
                    "type": "address"
                },
                {
                    "internalType": "address",
                    "name": "recipient",
                    "type": "address"
                },
                {
                    "internalType": "uint256",
                    "name": "amount",
                    "type": "uint256"
                }
            ],
            "name": "transferFrom",
            "outputs": [
                {
                    "internalType": "bool",
                    "name": "",
                    "type": "bool"
                }
            ],
            "stateMutability": "nonpayable",
            "type": "function"
        }
    ],
    "bytecode": "60806040526005805460ff191660121790553480156200001e57600080fd5b506040516200102138038062001021833981016040819052620000419162000241565b60036200004f8482620003e7565b5060046200005e8382620003e7565b50600554600090620000759060ff16600a620005c8565b6200008390612710620005dd565b905060005b825181101562000160576000838281518110620000a957620000a9620005f7565b6020026020010151905082600080836001600160a01b03166001600160a01b031681526020019081526020016000206000828254620000e991906200060d565b9250508190555082600260008282546200010491906200060d565b90915550506040518381526001600160a01b038216906000907fddf252ad1be2c89b69c2b068fc378daa952ba7f163c4a11628f55a4df523b3ef9060200160405180910390a35080620001578162000623565b91505062000088565b50505050506200063f565b634e487b7160e01b600052604160045260246000fd5b604051601f8201601f191681016001600160401b0381118282101715620001ac57620001ac6200016b565b604052919050565b600082601f830112620001c657600080fd5b81516001600160401b03811115620001e257620001e26200016b565b6020620001f8601f8301601f1916820162000181565b82815285828487010111156200020d57600080fd5b60005b838110156200022d57858101830151828201840152820162000210565b506000928101909101919091529392505050565b6000806000606084860312156200025757600080fd5b83516001600160401b03808211156200026f57600080fd5b6200027d87838801620001b4565b94506020915081860151818111156200029557600080fd5b620002a388828901620001b4565b945050604086015181811115620002b957600080fd5b8601601f81018813620002cb57600080fd5b805182811115620002e057620002e06200016b565b8060051b9250620002f384840162000181565b818152928201840192848101908a8511156200030e57600080fd5b928501925b848410156200034857835192506001600160a01b0383168314620003375760008081fd5b828252928501929085019062000313565b8096505050505050509250925092565b600181811c908216806200036d57607f821691505b6020821081036200038e57634e487b7160e01b600052602260045260246000fd5b50919050565b601f821115620003e257600081815260208120601f850160051c81016020861015620003bd5750805b601f850160051c820191505b81811015620003de57828155600101620003c9565b5050505b505050565b81516001600160401b038111156200040357620004036200016b565b6200041b8162000414845462000358565b8462000394565b602080601f8311600181146200045357600084156200043a5750858301515b600019600386901b1c1916600185901b178555620003de565b600085815260208120601f198616915b82811015620004845788860151825594840194600190910190840162000463565b5085821015620004a35787850151600019600388901b60f8161c191681555b5050505050600190811b01905550565b634e487b7160e01b600052601160045260246000fd5b600181815b808511156200050a578160001904821115620004ee57620004ee620004b3565b80851615620004fc57918102915b93841c9390800290620004ce565b509250929050565b6000826200052357506001620005c2565b816200053257506000620005c2565b81600181146200054b5760028114620005565762000576565b6001915050620005c2565b60ff8411156200056a576200056a620004b3565b50506001821b620005c2565b5060208310610133831016604e8410600b84101617156200059b575081810a620005c2565b620005a78383620004c9565b8060001904821115620005be57620005be620004b3565b0290505b92915050565b6000620005d6838362000512565b9392505050565b8082028115828204841417620005c257620005c2620004b3565b634e487b7160e01b600052603260045260246000fd5b80820180821115620005c257620005c2620004b3565b600060018201620006385762000638620004b3565b5060010190565b6109d2806200064f6000396000f3fe608060405234801561001057600080fd5b50600436106100b45760003560e01c806370a082311161007157806370a082311461015857806395d89b4114610178578063a0712d6814610180578063a9059cbb14610193578063d6c373f4146101a6578063dd62ed3e146101b957600080fd5b806306fdde03146100b9578063095ea7b3146100d757806318160ddd146100fa57806323b872dd14610111578063313ce5671461012457806342966c6814610143575b600080fd5b6100c16101e4565b6040516100ce919061059c565b60405180910390f35b6100ea6100e5366004610606565b610272565b60405190151581526020016100ce565b61010360025481565b6040519081526020016100ce565b6100ea61011f366004610630565b6102df565b6005546101319060ff1681565b60405160ff90911681526020016100ce565b61015661015136600461066c565b6103ba565b005b610103610166366004610685565b60006020819052908152604090205481565b6100c1610421565b61015661018e36600461066c565b61042e565b6100ea6101a1366004610606565b61048e565b6100ea6101b43660046106bd565b61050c565b6101036101c736600461079d565b600160209081526000928352604080842090915290825290205481565b600380546101f1906107d0565b80601f016020809104026020016040519081016040528092919081815260200182805461021d906107d0565b801561026a5780601f1061023f5761010080835404028352916020019161026a565b820191906000526020600020905b81548152906001019060200180831161024d57829003601f168201915b505050505081565b3360008181526001602090815260408083206001600160a01b038716808552925280832085905551919290917f8c5be1e5ebec7d5bd14f71427d1e84f3dd0314c0f7b2291e5b200ac8c7c3b925906102cd9086815260200190565b60405180910390a35060015b92915050565b6001600160a01b0383166000908152600160209081526040808320338452909152812080548391908390610314908490610820565b90915550506001600160a01b03841660009081526020819052604081208054849290610341908490610820565b90915550506001600160a01b0383166000908152602081905260408120805484929061036e908490610833565b92505081905550826001600160a01b0316846001600160a01b031660008051602061097d833981519152846040516103a891815260200190565b60405180910390a35060019392505050565b33600090815260208190526040812080548392906103d9908490610820565b9250508190555080600260008282546103f29190610820565b9091555050604051818152600090339060008051602061097d833981519152906020015b60405180910390a350565b600480546101f1906107d0565b336000908152602081905260408120805483929061044d908490610833565b9250508190555080600260008282546104669190610833565b9091555050604051818152339060009060008051602061097d83398151915290602001610416565b336000908152602081905260408120805483919083906104af908490610820565b90915550506001600160a01b038316600090815260208190526040812080548492906104dc908490610833565b90915550506040518281526001600160a01b03841690339060008051602061097d833981519152906020016102cd565b6000805b845181101561059157600085828151811061052d5761052d610846565b602090810291909101015160055490915061054c9060ff16600a610940565b610556908561094c565b6001600160a01b039182166000908152600160209081526040808320948916835293905291909120558061058981610963565b915050610510565b506001949350505050565b600060208083528351808285015260005b818110156105c9578581018301518582016040015282016105ad565b506000604082860101526040601f19601f8301168501019250505092915050565b80356001600160a01b038116811461060157600080fd5b919050565b6000806040838503121561061957600080fd5b610622836105ea565b946020939093013593505050565b60008060006060848603121561064557600080fd5b61064e846105ea565b925061065c602085016105ea565b9150604084013590509250925092565b60006020828403121561067e57600080fd5b5035919050565b60006020828403121561069757600080fd5b6106a0826105ea565b9392505050565b634e487b7160e01b600052604160045260246000fd5b6000806000606084860312156106d257600080fd5b833567ffffffffffffffff808211156106ea57600080fd5b818601915086601f8301126106fe57600080fd5b8135602082821115610712576107126106a7565b8160051b604051601f19603f83011681018181108682111715610737576107376106a7565b60405292835281830193508481018201928a84111561075557600080fd5b948201945b8386101561077a5761076b866105ea565b8552948201949382019361075a565b975061078990508882016105ea565b955050505050604084013590509250925092565b600080604083850312156107b057600080fd5b6107b9836105ea565b91506107c7602084016105ea565b90509250929050565b600181811c908216806107e457607f821691505b60208210810361080457634e487b7160e01b600052602260045260246000fd5b50919050565b634e487b7160e01b600052601160045260246000fd5b818103818111156102d9576102d961080a565b808201808211156102d9576102d961080a565b634e487b7160e01b600052603260045260246000fd5b600181815b8085111561089757816000190482111561087d5761087d61080a565b8085161561088a57918102915b93841c9390800290610861565b509250929050565b6000826108ae575060016102d9565b816108bb575060006102d9565b81600181146108d157600281146108db576108f7565b60019150506102d9565b60ff8411156108ec576108ec61080a565b50506001821b6102d9565b5060208310610133831016604e8410600b841016171561091a575081810a6102d9565b610924838361085c565b80600019048211156109385761093861080a565b029392505050565b60006106a0838361089f565b80820281158282048414176102d9576102d961080a565b6000600182016109755761097561080a565b506001019056feddf252ad1be2c89b69c2b068fc378daa952ba7f163c4a11628f55a4df523b3efa26469706673582212203f310e2ac99e6d4502027989c41734ce412e4f8294f9122acc3c597b6436ca0564736f6c63430008130033",
    "sourcePath": "/Users/soda/Flagdao/contracts/ERC-20.sol",
    "compiler": {
        "name": "solc",
        "version": "0.8.19+commit.7dd6d404"
    },
    "functionHashes": {
        "allowance(address,address)": "dd62ed3e",
        "approve(address,uint256)": "095ea7b3",
        "approveBatch(address[],address,uint256)": "d6c373f4",
        "balanceOf(address)": "70a08231",
        "burn(uint256)": "42966c68",
        "decimals()": "313ce567",
        "mint(uint256)": "a0712d68",
        "name()": "06fdde03",
        "symbol()": "95d89b41",
        "totalSupply()": "18160ddd",
        "transfer(address,uint256)": "a9059cbb",
        "transferFrom(address,address,uint256)": "23b872dd"
    },
    "gasEstimates": {
        "creation": {
            "codeDepositCost": "502800",
            "executionCost": "infinite",
            "totalCost": "infinite"
        },
        "external": {
            "allowance(address,address)": "infinite",
            "approve(address,uint256)": "24523",
            "approveBatch(address[],address,uint256)": "infinite",
            "balanceOf(address)": "2522",
            "burn(uint256)": "infinite",
            "decimals()": "2402",
            "mint(uint256)": "infinite",
            "name()": "infinite",
            "symbol()": "infinite",
            "totalSupply()": "2340",
            "transfer(address,uint256)": "infinite",
            "transferFrom(address,address,uint256)": "infinite"
        }
    }
}